{
  "contractName": "SwapAgreement",
  "abi": [
    {
      "anonymous": false,
      "inputs": [
        {
          "indexed": false,
          "name": "initiator",
          "type": "address"
        },
        {
          "indexed": false,
          "name": "respondent",
          "type": "address"
        },
        {
          "indexed": false,
          "name": "id",
          "type": "uint256"
        }
      ],
      "name": "SwapLog",
      "type": "event"
    },
    {
      "constant": false,
      "inputs": [],
      "name": "initiatedSwap",
      "outputs": [
        {
          "name": "",
          "type": "uint256"
        }
      ],
      "payable": false,
      "stateMutability": "nonpayable",
      "type": "function"
    },
    {
      "constant": false,
      "inputs": [
        {
          "name": "id",
          "type": "uint256"
        }
      ],
      "name": "finalizeSwap",
      "outputs": [],
      "payable": false,
      "stateMutability": "nonpayable",
      "type": "function"
    }
  ],
  "bytecode": "0x608060405234801561001057600080fd5b5061041a806100206000396000f30060806040526004361061004c576000357c0100000000000000000000000000000000000000000000000000000000900463ffffffff1680630892191714610051578063845a6f171461007c575b600080fd5b34801561005d57600080fd5b506100666100a9565b6040518082815260200191505060405180910390f35b34801561008857600080fd5b506100a760048036038101908080359060200190929190505050610241565b005b6000806001600060408051908101604052803373ffffffffffffffffffffffffffffffffffffffff168152602001600073ffffffffffffffffffffffffffffffffffffffff168152509080600181540180825580915050906001820390600052602060002090600202016000909192909190915060008201518160000160006101000a81548173ffffffffffffffffffffffffffffffffffffffff021916908373ffffffffffffffffffffffffffffffffffffffff16021790555060208201518160010160006101000a81548173ffffffffffffffffffffffffffffffffffffffff021916908373ffffffffffffffffffffffffffffffffffffffff16021790555050500390507f4f0da1e7b2686a98ec69e58da2a71cef6e30a1be34d7fe37cdda105fe316c25833600083604051808473ffffffffffffffffffffffffffffffffffffffff1673ffffffffffffffffffffffffffffffffffffffff1681526020018373ffffffffffffffffffffffffffffffffffffffff168152602001828152602001935050505060405180910390a18091505090565b6000808281548110151561025157fe5b906000526020600020906002020190508060000160009054906101000a900473ffffffffffffffffffffffffffffffffffffffff1673ffffffffffffffffffffffffffffffffffffffff163373ffffffffffffffffffffffffffffffffffffffff16141515156102c057600080fd5b338160010160006101000a81548173ffffffffffffffffffffffffffffffffffffffff021916908373ffffffffffffffffffffffffffffffffffffffff1602179055507f4f0da1e7b2686a98ec69e58da2a71cef6e30a1be34d7fe37cdda105fe316c2588160000160009054906101000a900473ffffffffffffffffffffffffffffffffffffffff168260010160009054906101000a900473ffffffffffffffffffffffffffffffffffffffff1684604051808473ffffffffffffffffffffffffffffffffffffffff1673ffffffffffffffffffffffffffffffffffffffff1681526020018373ffffffffffffffffffffffffffffffffffffffff1673ffffffffffffffffffffffffffffffffffffffff168152602001828152602001935050505060405180910390a150505600a165627a7a72305820848b7f52ba35e330f53a36fa957c959f57a62ad4529126cdf5505593b87055d00029",
  "source": "// Requires Solidity version 0.4.17 or above in order to run\npragma solidity ^0.4.17;\n\ncontract SwapAgreement {\n\n  // Declares variables that will be used to store addresses for each party involved in swap\n    event SwapLog(\n        address initiator,\n        address respondent,\n        uint256 id\n    );\n\n    Swap[] swaps;\n\n    struct Swap {\n        address initiator;\n        address respondent;\n    }\n\n// Set the address for the person who initiates the swap\n    function initiatedSwap() public returns (uint256) {\n        uint256 id = swaps.push(Swap(msg.sender, 0x0000)) - 1; \n        emit SwapLog(msg.sender, 0x0000, id);\n        return id;\n    }\n\n// Set the address for the person who accepts the swap.\n    function finalizeSwap(uint256 id) public {\n        Swap storage swap = swaps[id];\n        require(msg.sender != swap.initiator); // Prevent setting same address to initiator AND respondent\n        swap.respondent = msg.sender; \n        emit SwapLog(swap.initiator, swap.respondent, id);\n    }\n}",
  "sourcePath": "/Users/lindsaysack/WDF - Foundations/Senior Phase/skillshare/contracts/SwapAgreement.sol",
  "compiler": {
    "name": "solc",
    "version": "0.4.24+commit.e67f0147.Emscripten.clang"
  },
  "schemaVersion": "2.0.1",
  "updatedAt": "2018-06-22T20:13:38.468Z"
}